:1000000080380020D5CD0000892D0100A9CD000049
:10001000A9CD0000A9CD0000A9CD0000000000007E
:10002000000000000000000000000000B5CA000051
:10003000A9CD00000000000061CA0000A9CD0000A9
:1000400065CB00005738010065CB000065CB000090
:1000500065CB000065CB000065CB000065CB0000E0
:100060000538010065CB000065CB00003D3801007C
:1000700065CB000065CB000065CB000065CB0000C0
:1000800065CB000065CB000065CB000065CB0000B0
:1000900065CB000065CB000065CB000065CB0000A0
:1000A00065CB000065CB000065CB000065CB000090
:0800B00065CB000065CB0000E8
:1000B8004FF0FF0C1CEAD0521EBF1CEAD15392EA43
:1000C8000C0F93EA0C0F6FD01A4480EA010C40021F
:1000D80018BF5FEA41211ED04FF0006343EA501079
:1000E80043EA5111A0FB01310CF00040B1F5000FBB
:1000F8003EBF490041EAD3715B0040EA010062F16A
:100108007F02FD2A1DD8B3F1004F40EBC25008BF53
:1001180020F00100704790F0000F0CF0004C08BF71
:1001280049024CEA502040EA51207F3AC2BFD2F13E
:10013800FF0340EAC250704740F400004FF000034C
:10014800013A5DDC12F1190FDCBF00F00040704786
:10015800C2F10002410021FA02F1C2F1200200FAC4
:1001680002FC5FEA310040F1000053EA4C0308BF8B
:1001780020EADC70704792F0000F00F0004C02BFDC
:10018800400010F4000F013AF9D040EA0C0093F057
:10019800000F01F0004C02BF490011F4000F013BB1
:1001A800F9D041EA0C018FE70CEAD15392EA0C0F1F
:1001B80018BF93EA0C0F0AD030F0004C18BF31F08A
:1001C800004CD8D180EA010000F00040704790F060
:1001D800000F17BF90F0004F084691F0000F91F004
:1001E800004F14D092EA0C0F01D142020FD193EACA
:1001F8000C0F03D14B0218BF084608D180EA010052
:1002080000F0004040F0FE4040F40000704740F02D
:10021800FE4040F44000704781F0004102E000BF1A
:1002280083F0004330B54FEA41044FEA430594EAAE
:10023800050F08BF90EA020F1FBF54EA000C55EAE9
:10024800020C7FEA645C7FEA655C00F0E2804FEABA
:100258005454D4EB5555B8BF6D420CDD2C4480EA9C
:10026800020281EA030382EA000083EA010180EACC
:10027800020281EA0303362D88BF30BD11F0004F1A
:100288004FEA01314FF4801C4CEA113102D0404250
:1002980061EB410113F0004F4FEA03334CEA13338B
:1002A80002D0524263EB430394EA050F00F0A780A3
:1002B800A4F10104D5F1200E0DDB02FA0EFC22FA9E
:1002C80005F2801841F1000103FA0EF2801843FA92
:1002D80005F359410EE0A5F120050EF1200E012A83
:1002E80003FA0EFC28BF4CF0020C43FA05F3C018C1
:1002F80051EBE37101F0004507D54FF0000EDCF13A
:10030800000C7EEB00006EEB0101B1F5801F1BD3E2
:10031800B1F5001F0CD349085FEA30004FEA3C0CE6
:1003280004F101044FEA445212F5800F80F09A80DC
:10033800BCF1004F08BF5FEA500C50F1000041EBE0
:10034800045141EA050130BD5FEA4C0C404141EBE4
:100358000101013C28BFB1F5801FE9D291F0000FDF
:1003680004BF01460020B1FA81F308BF2033A3F18E
:100378000B03B3F120020CDA0C3208DD02F1140C85
:10038800C2F10C0201FA0CF021FA02F10CE002F1C0
:100398001402D8BFC2F1200C01FA02F120FA0CFCB9
:1003A800DCBF41EA0C019040E41AA2BF01EB045102
:1003B800294330BD6FEA04041F3C1CDA0C340EDC00
:1003C80004F11404C4F1200220FA04F001FA02F343
:1003D80040EA030021FA04F345EA030130BDC4F101
:1003E8000C04C4F1200220FA02F001FA04F340EAF6
:1003F8000300294630BD21FA04F0294630BD94F0A7
:10040800000F83F4801306BF81F480110134013D8D
:100418004EE77FEA645C18BF7FEA655C29D094EAFE
:10042800050F08BF90EA020F05D054EA000C04BF7C
:100438001946104630BD91EA030F1EBF0021002067
:1004480030BD5FEA545C05D14000494128BF41F006
:10045800004130BD14F580043CBF01F5801130BD6A
:1004680001F0004545F0FE4141F470014FF00000F5
:1004780030BD7FEA645C1ABF194610467FEA655CA6
:100488001CBF0B46024650EA013406BF52EA033548
:1004980091EA030F41F4002130BD00BF90F0000F36
:1004A80004BF0021704730B54FF4806404F1320472
:1004B8004FF000054FF0000150E700BF90F0000F2B
:1004C80004BF0021704730B54FF4806404F1320452
:1004D80010F0004548BF40424FF000013EE700BF22
:1004E80042004FEAE2014FEA31014FEA02701FBFB2
:1004F80012F07F4393F07F4F81F06051704732F0E4
:100508007F4208BF704793F07F4F04BF41F400213A
:10051800704730B54FF4607401F0004521F0004198
:100528001CE700BF50EA010208BF704730B54FF022
:1005380000050AE050EA010208BF704730B511F023
:10054800004502D5404261EB41014FF4806404F15B
:1005580032045FEA915C3FF4D8AE4FF003025FEAE1
:10056800DC0C18BF03325FEADC0C18BF033202EB65
:10057800DC02C2F1200300FA03FC20FA02F001FABF
:1005880003FE40EA0E0021FA02F11444BDE600BF62
:1005980070B54FF0FF0C4CF4E06C1CEA11541DBF11
:1005A8001CEA135594EA0C0F95EA0C0F00F0DEF8DC
:1005B8002C4481EA030621EA4C5123EA4C5350EAC1
:1005C800013518BF52EA033541F4801143F4801312
:1005D80038D0A0FB02CE4FF00005E1FB02E506F0A3
:1005E8000042E0FB03E54FF00006E1FB03569CF0F8
:1005F800000F18BF4EF0010EA4F1FF04B6F5007FFE
:1006080064F5407404D25FEA4E0E6D4146EB06066F
:1006180042EAC62141EA55514FEAC52040EA5E50F8
:100628004FEACE2EB4F1FD0C88BFBCF5E06F1ED8A2
:10063800BEF1004F08BF5FEA500E50F1000041EBD9
:10064800045170BD06F0004646EA010140EA020086
:1006580081EA0301B4EB5C04C2BFD4EB0C0541EAA8
:10066800045170BD41F480114FF0000E013C00F3BD
:10067800AB8014F1360FDEBF002001F0004170BDE1
:10068800C4F10004203C35DA0C341BDC04F11404FA
:10069800C4F1200500FA05F320FA04F001FA05F286
:1006A80040EA020001F0004221F0004110EBD37053
:1006B80021FA04F642EB06015EEA430E08BF20EA7F
:1006C800D37070BDC4F10C04C4F1200500FA04F322
:1006D80020FA05F001FA04F240EA020001F00041B4
:1006E80010EBD37041F100015EEA430E08BF20EA27
:1006F800D37070BDC4F1200500FA05F24EEA020E6F
:1007080020FA04F301FA05F243EA020321FA04F09D
:1007180001F0004121FA04F220EA020000EBD37054
:100728005EEA430E08BF20EAD37070BD94F0000F54
:100738000FD101F00046400041EB010111F4801F88
:1007480008BF013CF7D041EA060195F0000F18BF39
:10075800704703F00046520043EB030313F4801F75
:1007680008BF013DF7D043EA0603704794EA0C0F2F
:100778000CEA135518BF95EA0C0F0CD050EA410645
:1007880018BF52EA4306D1D181EA030101F00041C2
:100798004FF0000070BD50EA410606BF10461946EA
:1007A80052EA430619D094EA0C0F02D150EA0136F6
:1007B80013D195EA0C0F05D152EA03361CBF104637
:1007C80019460AD181EA030101F0004141F0FE41D6
:1007D80041F470014FF0000070BD41F0FE4141F45A
:1007E800780170BD70B54FF0FF0C4CF4E06C1CEA5A
:1007F80011541DBF1CEA135594EA0C0F95EA0C0F0F
:1008080000F0A7F8A4EB050481EA030E52EA0335C9
:100818004FEA013100F088804FEA03334FF08055EA
:1008280045EA131343EA12634FEA022245EA111517
:1008380045EA10654FEA00260EF000419D4208BFC8
:10084800964244F1FD0404F5407402D25B084FEA75
:100858003202B61A65EB03055B084FEA32024FF421
:1008680080104FF4002CB6EB020E75EB030E22BF7E
:10087800B61A754640EA0C005B084FEA3202B6EB3E
:10088800020E75EB030E22BFB61A754640EA5C00ED
:100898005B084FEA3202B6EB020E75EB030E22BF7D
:1008A800B61A754640EA9C005B084FEA3202B6EB7E
:1008B800020E75EB030E22BFB61A754640EADC003D
:1008C80055EA060E18D04FEA051545EA16754FEA9F
:1008D80006164FEAC30343EA52734FEAC2025FEABD
:1008E8001C1CC0D111F4801F0BD141EA00014FF04C
:1008F80000004FF0004CB6E711F4801F04BF01431D
:100908000020B4F1FD0C88BFBCF5E06F3FF6AFAE38
:10091800B5EB030C04BFB6EB020C5FEA500C50F1C8
:10092800000041EB045170BD0EF0004E4EEA11314B
:1009380014EB5C04C2BFD4EB0C0541EA045170BD52
:1009480041F480114FF0000E013C90E645EA060E96
:100958008DE60CEA135594EA0C0F08BF95EA0C0FC4
:100968003FF43BAF94EA0C0F0AD150EA01347FF40C
:1009780034AF95EA0C0F7FF425AF104619462CE7E3
:1009880095EA0C0F06D152EA03353FF4FDAE104646
:10099800194622E750EA410618BF52EA43067FF497
:1009A800C5AE50EA41047FF40DAF52EA43057FF427
:1009B800EBAE12E74FEA410212F5001215D211D53B
:1009C8006FF47873B3EB625212D94FEAC12343F044
:1009D800004343EA505311F0004F23FA02F018BFC6
:1009E800404270474FF00000704750EA013005D18F
:1009F80011F0004008BF6FF0004070474FF0000052
:100A0800704700BF4FEA4102B2F1E04324BFB3F59B
:100A1800001CDCF1FE5C0DD901F0004C4FEAC0026D
:100A28004CEA5070B2F1004F40EB830008BF20F051
:100A38000100704711F0804F21D113F13872BCBF0B
:100A480001F00040704741F480114FEA5252C2F160
:100A58001802C2F1200C10FA0CF320FA02F018BFA9
:100A680040F001004FEAC1234FEAD32303FA0CFCFC
:100A780040EA0C0023FA02F34FEA4303CCE77FEA8B
:100A8800625307D150EA01331EBF4FF0FE4040F4D5
:100A98004000704701F0004040F0FE4040F4000084
:100AA800704700BF53B94AB9002908BF00281CBFC6
:100AB8004FF0FF314FF0FF3000F00CB8ADF1080CEB
:100AC8006DE904CE07F0B0FBDDF804E0DDE90223B0
:100AD80004B07047704700BF4FF0FF3C06E000BF0E
:100AE8004FF0010C02E000BF4FF0010C4DF804CDAF
:100AF8004FEA410C7FEA6C5C4FEA430C18BF7FEA6F
:100B08006C5C1BD001B050EA410C0CBF52EA430C9C
:100B180091EA030F02BF90EA020F0020704710F11C
:100B2800000F91EA030F58BF994208BF90422CBFAB
:100B3800D8176FEAE37040F0010070474FEA410CA4
:100B48007FEA6C5C02D150EA013C07D14FEA430CC2
:100B58007FEA6C5CD6D152EA033CD3D05DF8040B33
:100B6800704700BF8446104662468C461946634665
:100B780000E000BF01B5FFF7B7FF002848BF10F13C
:100B8800000F01BD4DF808EDFFF7F4FF0CBF012081
:100B980000205DF808FB00BF4DF808EDFFF7EAFFFD
:100BA80034BF012000205DF808FB00BF4DF808EDB8
:100BB800FFF7E0FF94BF012000205DF808FB00BFAD
:100BC8004DF808EDFFF7CEFF94BF012000205DF837
:100BD80008FB00BF4DF808EDFFF7C4FF34BF012044
:100BE80000205DF808FB00BF01480078704700004E
:100BF8002800002070B5174C6078002823D1012008
:100C0800607007F0B0FD6FF0270528B907F0E1FD27
:100C180010B907F0E8FD20B10F486060A570082002
:100C280010E007F075FD40B907F07CFD28B907F022
:100C380090FD10B907F0A1FD30B107483130606070
:100C4800A5700420E07070BD4FF48F71742003F01C
:100C580083FA0000280000209CAE0000084991F9A2
:100C68000320904203DA91F90220904201DC1046F9
:100C780070474968801A085C0249085670470000A6
:100C8800280000208EAE00002DE9F0411C46904659
:100C98000D4606466FF01507042804D81CB107F066
:100CA8001BFCA84202D83846BDE8F08105484246F8
:100CB80050F8260018B14057824200DD02462270E3
:100CC8000020F1E7C80600200148007870470000BE
:100CD8003000002005490A78904201D3002070476F
:100CE800496800EB400001EB00107047300000201D
:100CF8000E4910B591F82D00202812D091F82D003A
:100D0800A1F58062C0EBC00002EB800091F82D10C5
:100D18004068C1EBC10152F82120BDE81040042110
:100D2800104740F6BC01702003F016FADC0A0020D8
:100D380070B50546202A28D019481A4C00EB831CA8
:100D480003EB43030CEB42002344202922D00CEB95
:100D5800410140784C784870204601460CEB410030
:100D6800914205704078F8D193F82220202A1ABFC2
:100D78000CEB4202547083F8214020220CEB410C0A
:100D88008CF8012083F8221070BD4FF42671702072
:100D980003F0E2F993F82040407883F82000DBE77D
:100DA8005C0A0020DC0A00202DE9FF4F8DB01546B3
:100DB8000C4602F04BF9284420F07F400890216847
:100DC800081A0002C11700EB11600012002800F396
:100DD800F080DDF84080CD4808EB480108440990D0
:100DE80090F820502020CA4E0DF1180A0DF11C0968
:100DF8008DF81800202D1CBFC64800EB881B38D082
:100E0800C5EBC50006EB800000F10801C068276843
:100E1800381A0002C21700EB1260001229D4E089C8
:100E280000B3C889F0B90868039003F009F8B0F571
:100E3800C67F08BF0D200BD0A0F54070563808BFFC
:100E48001C2005D0A0F500709F3814BF0020322068
:100E5800411C0398381A0002C21700EB12600012F6
:100E6800884206DB0BEB45008AF800504578202DB8
:100E7800C6D19AF8000089F80000202D1CBFA548AB
:100E880000EB881B00F03E81C5EBC50006EB800730
:100E98006168D7F8088007F10800A8EB010109028A
:100EA800CA1701EB1261091227D4C089002800F083
:100EB8002981E089002840F02581D4F800A002F0BB
:100EC800BFFFB0F5C67F08BF0D200BD0A0F540705E
:100ED800563808BF1C2005D0A0F500709F3814BFF5
:100EE80000203220411CA8EB0A000002C21700EBC8
:100EF80012600012884280F2058189F80050387E1D
:100F0800217C884206D90BEB45004578202DBBD1C2
:100F180000F0F8B89DF81C00C0EBC00006EB80009C
:100F2800C18AC568E1BBE189D1B3876802F088FF4F
:100F3800B0F5C67F08BF0D200BD0A0F5407056381D
:100F480008BF1C2005D0A0F500709F3814BF0020F2
:100F58003220411CE81B0002C21700EB126000128D
:100F680088421DDA02F06CFFB0F5C67F08BF0D207D
:100F78000BD0A0F54070563808BF1C2005D0A0F54E
:100F880000709F3814BF002032209DF81C10401CB0
:100F9800C1EBC10106EB81018968084420F07F4557
:100FA8000898281A0002C11700EB116000120028E7
:100FB80003DD11B00020BDE8F08F2068A84202D9F7
:100FC800A168491CA16061680DF1180A081A284433
:100FD80025F07F4120F07F40C4E9001010980B9065
:100FE80009980DF11C0890F8205020208DF8180061
:100FF800202D3CD047490B9801EB801BC5EBC50061
:1010080006EB800000F10801C0682768381A000262
:10101800C21700EB1260001229D4E08900B3C88916
:10102800F0B9D1F8009002F00BFFB0F5C67F08BF09
:101038000D200BD0A0F54070563808BF1C2005D0F5
:10104800A0F500709F3814BF00203220411CA7EB88
:1010580009000002C21700EB12600012884206DB8A
:101068000BEB45008AF800504578202DC6D19AF838
:10107800000088F800000B98202D1CBF254901EBC3
:10108800801B3FD0C5EBC50006EB80076068D7F82A
:10109800089007F10801A9EB00000002C21700EB55
:1010A8001260001222D4C88960B3E08950BBD4F81A
:1010B80000A002F0C5FEB0F5C67F08BF0D200BD01A
:1010C800A0F54070563808BF1C2005D0A0F5007068
:1010D8009F3814BF00203220411CA9EB0A000002EF
:1010E800C21700EB1260001288420BDA88F8005031
:1010F800387E217C88427FF60DAF0BEB45004578A2
:10110800202DBFD111B00120BDE8F08FDC0A0020EE
:10111800DC0600205C0A00202DE9F84F0F46064641
:1011280001EB47004B4999460844924690F8204005
:1011380020201070A1F58068202C1CBF464800EBC9
:10114800871B38D0C4EBC40008EB800000F108010D
:10115800C0683568281A0002C21700EB1260001236
:1011680029D4F08900B3C889F0B90868009002F062
:1011780067FEB0F5C67F08BF0D200BD0A0F5407004
:10118800563808BF1C2005D0A0F500709F3814BF42
:1011980000203220411C0098281A0002C21700EBD8
:1011A80012600012884206DB0BEB44008AF800400C
:1011B8004478202CC6D19AF8000089F80000202C29
:1011C8001CBF254800EB871A40D000BFC4EBC40001
:1011D80008EB80077068BD6807F10801281A00024B
:1011E800C21700EB1260001222D4C88970B3F089CC
:1011F80060BBD6F800B002F023FEB0F5C67F08BF8A
:101208000D200BD0A0F54070563808BF1C2005D023
:10121800A0F500709F3814BF00203220411CA5EBB8
:101228000B000002C21700EB1260001288420DDAB0
:1012380089F80040387E317C884202D80020BDE819
:10124800F88F0AEB44004478202CBFD10120BDE878
:10125800F88F0000DC0A00205C0A00202DE9F74F17
:1012680098B015468B4602F09FF9044602F01AFC26
:101278000646BBF1010F18BFBBF1020F05D040F6BF
:1012880092114FF0700002F067FFFF4901200860DB
:10129800FE498968086000208DF856000E90401EAF
:1012A8000F90FB49C5EBC50001EB8001D1E9020CA9
:1012B800D1E90423CDE9100CCDE9122389691491F1
:1012C80007F041F90146BDF84E809DF84C00F14BFE
:1012D8004044421C881899424FD8EF4DAA4253DC2B
:1012E80069428A4258DB591C8142DCBF00F5F7008D
:1012F800A0F1F85005DD0028BCBFA0F5F70000F10B
:10130800F8500C90E548B8F1000F808BADF8540008
:1013180004BF00200B900BD001200B90DF4890F801
:101328002A0028B902F0A0FE002808BF012700D033
:10133800002702F085FDB0F5C67F08BF0D200BD051
:10134800A0F54070563808BF1C2005D0A0F50070E5
:101358009F3814BF002032204FF00009CA46099078
:10136800464537D90C99DFF82C936FEA060C6B4683
:1013780016AA01EB0C00494504D940F29E51702091
:1013880002F0EAFEAC4504DD40F29F51702002F005
:10139800E3FEC3498C4504DA4FF4B461702002F0CF
:1013A800DBFEC0498142DCBF00F5F700A0F1F85030
:1013B80005DD0028BCBFA0F5F70000F1F85019467C
:1013C80001F060FE0098109920F07F400090081A04
:1013D80020F07F49002F18BFDDF824A005D19DF823
:1013E8005400002818BF4FF0020AB4F1807F08D0DB
:1013F8001098001B0002C11700EB116000120128B1
:1014080002DA0320189D0DE057B1A44890F82B008C
:1014180030B19DF8540010F1000A18BF4FF0020ACD
:101428002546002082441098A0EB090020F07F4256
:10143800501E20F07F40411B0902CB1701EB1361BE
:101448000912514504DBB9F1000F18BF10922DE0C5
:10145800B9F1000F05D09DF8550020B902F018FB2E
:1014680008B1AFB90CE02FB99DF85400002818BF97
:10147800AAF1020A4FF000098DF854904E4607E091
:101488009DF8540020B100208DF85400AAF1020AFA
:101498001098A0EB0900401E20F07F40411B090274
:1014A800CA1701EB1261091251457CDB0A97054600
:1014B8004FF000090B9F01F04FFF281A0002C117D7
:1014C80000EB11604FEA202A02F0BAFCB0F5C67FA3
:1014D80008BF0D200BD0A0F54070563808BF1C205F
:1014E80005D0A0F500709F3814BF002032200B30C3
:1014F800824520DABBF1010F02D00A9840B112E010
:10150800B4F1807F1CD140F61311702002F024FE44
:10151800B4F1807F07D0601B0002C11700EB116097
:101528000012042804DD2C46204601F03BFF07E0AA
:10153800002864DC04E02C46204601F033FFB9465D
:10154800B4F1807F56D01098119A001B121B20F01E
:101558007F4022F07F42012851D3B0F5000F98BF99
:10156800B2F5000F4BD8204606F0EDFF0C994A4A19
:101578000D1A4FF0000AAA1A7AF1000218D3464B46
:10158800421AD31A7AF1000312D3424BAB423EBF40
:10159800C0F5902000F1F450451809D3934232D297
:1015A800C1F5902100E02AE001F1F45108444542D8
:1015B8003A4FB87F60B300BFBBF1010F05D00220DE
:1015C80002F02CF9012002F029F9B0452CD2A5EB44
:1015D80006014FF0020002F06BF890B3B8F1000F6B
:1015E8001CBFA5EB0801012034D000BF02F060F851
:1015F80038B32FE040F62621702002F0ADFD1BB075
:101608000020BDE8F08F40F6FA21702002F0A4FD1A
:10161800B04534BF304640461E30A842CCDB40F6C9
:101628003A21702002F098FD0CD9A5EB08010120A1
:1016380002F03EF828B1002E1CBFA91B022009D0D9
:10164800D4E741E056EA080004D040F6761170204D
:1016580002F082FD2946002002F02AF8A0B30B9878
:101668000126002804BF97F82B00002802D0B9F102
:10167800000F34D097F82A0018B102F0E7FB87F87A
:101688002AA0B9F1000F0FE008050040380000203B
:10169800DC060020FF7F841E0040420FDC0A002089
:1016A80000C0BDF00080841E1CD00998201A20F0CC
:1016B8007F41052001F0FCFF60B397F82B0000285C
:1016C80008BF87F82B6015E0FFE7022002F0A6F8B4
:1016D800012002F0A3F81BB00020BDE8F08F97F8B6
:1016E8002A0090B197F82B0020B1052002F096F857
:1016F80087F82BA0A5EB0800A0F1190100290EDC42
:1017080040F66321702002F027FD02F0BBFB87F84A
:101718002A60B6E74FF43E71702002F01DFD0320E9
:1017280001F0C6FFC0B10F488068C0F800A00E489D
:10173800C0F800A00EAC94E80F0038607960BA6079
:10174800FB6012AC94E80F0038617961BA61FB6103
:101758001BB00120BDE8F08F40F66B21702002F02D
:10176800FBFC000038000020080500402DE9FF4F71
:1017780014460D464FF0000A0A89514662F31F418C
:10178800AA7AD14662F30709EA7A064662F30F2974
:101798002A7883B04068C4F800A062F31749C4F8F7
:1017A80004A0C4F81090C4E902019D4F7068A0FB22
:1017B8000789306806F0C7FE10EB08014AEB0902FA
:1017C80028784FEA6709C9F1000B70B1E08994F8ED
:1017D8001180C043D5F804A004F10C0248457CDD13
:1017E80040F29F51702002F0B7FCDFF838C2D5E90B
:1017F800040311EB0C0A42F1000CB0EB0A0A73EB7C
:101808000C0C72D2411A73EB02016ED3B0EB0806CE
:10181800B7422BD8E089A6F1F458A8F59028C1431F
:10182800814A08EB010042452BD34945D8DC59458C
:1018380066DB8742DCBF00F5F700A0F1F85005DD54
:101848000028BCBFA0F5F70000F1F8506A4601A9CE
:1018580001F018FCE0899DF80010301A401A401E6B
:10186800B84202D3A068401CA0604646E0896E4B8F
:10187800C1436D6894F81180701804F10C029E42FF
:1018880004D940F29E51702002F066FC4945A7DC5D
:10189800594535DB8742DCBF00F5F700A0F1F85069
:1018A80005DD0028BCBFA0F5F70000F1F85021467F
:1018B80001F0E8FB206820F07F417019401C21608E
:1018C800B8F1000F08BF7A3004D0B8F1010F08BF93
:1018D80048303AD101F0BAFB01E00EE005E020F013
:1018E8007F40606007B0BDE8F08F3068401E20F090
:1018F8007F40206000F57A70F3E70146584504DA26
:101908004FF4B461702002F027FC8742DCBFA1F1DC
:10191800F450A0F5902005DD0028BCBF01F1F4507B
:1019280000F59020214601F0ADFB2068B8F1000FCA
:1019380020F07F410AF10100216008BF7A3009D008
:10194800B8F1010F08BF483004D040F23961702067
:1019580002F002FC01F07AFB20F07F416160B4F8EC
:101968000E9001AA69464846376801F08BFB02F0E1
:1019780099F801F06BFB80462C4890F82D1020292F
:101988002AD0C068401D20F07F4000BFD4E9002164
:10199800891A014421F07F41C4E90001316881427C
:1019A80002D9A068401CA060326828692146069BBD
:1019B800FFF7FAF900281CBF07B0BDE8F08FD4E99B
:1019C8000010401A316821603168084420F07F40D7
:1019D800606007B0BDE8F08F0937B9F1000F16D085
:1019E80002F042FB98B902F02BFAB0F5C67F08BFA7
:1019F8000D200BD0A0F54070563808BF1C2005D02C
:101A0800A0F500709F3814BF0020322007440098CA
:101A1800804584BFA8EB0000074427F07F40B5E766
:101A28000080841E0040420FFF7F841EDC0A0020D5
:101A380070B51E4D95F82D00202818BF70BD95F87B
:101A48002C2002EB4200284490F82040202C27D07C
:101A5800174B03EB821101EB4401497880F8201001
:101A6800FF2085F8290085F82D402146022000F046
:101A780091F8002085F82800A8770E49C4EBC40027
:101A880001EB8000007E002808BF02F0CFFC002098
:101A980009494968002908BF70BDBDE8704008477A
:101AA80040F23231702002F057FB0000DC0A0020BF
:101AB8005C0A0020DC060020380000202DE9F05FD9
:101AC800DFF8C08098F82C5005EB4500404490F8AA
:101AD8002140202C08BFBDE8F09FDFF8ACB0DFF84C
:101AE800ACA0AAF560790AEB8517072617F8140049
:101AF80001280ED0042808BF02260AD005280CBFEA
:101B08000326062805D040F6DD014FF0700002F0EC
:101B180023FBBBF1000F18BFAFF30080EFF3108079
:101B280072B607EB44014A7805EB4501414481F858
:101B3800212091F82220A24204BF202281F82220ED
:101B4800C0B12A462146012000F024F8C4EBC401A4
:101B580009EB810059F8212040683146904798F8F0
:101B68002C5005EB4500404490F82140202CBAD178
:101B7800BDE8F09F0648002818BFAFF3008062B6A2
:101B8800DFE70000DC0A0020000000005C0A0020FB
:101B980000000000DFF858C010B500230CEB821CD1
:101BA80007281FD2DFE800F0050505050404040036
:101BB80001230CF81100002B08BF10BD02EB4202F4
:101BC8000C48024492F8220020280EBF82F8211007
:101BD8000CEB4000417020200CEB4103587082F858
:101BE800221010BD40F26E21702002F0B5FA0000FC
:101BF8005C0A0020DC0A00202DE9F05F0F468046D1
:101C0800DFF858A101EB47005044B8F1010F90F8F4
:101C18002040254618BFB8F1020F05D040F6A12193
:101C28004FF0700002F098FA4FF0000B202D42D0D0
:101C38009AF81E000026002808BF022601F08CFB37
:101C4800DFF81CC1C4EBC4010CEB81018A68C968C8
:101C5800121A091A22F07F4221F07F41964299BF59
:101C6800B2F5000FB1F5000F3E4A02EB871920D9F3
:101C7800224609EB42014C78202C12D0C4EBC40157
:101C88000CEB81018B68C9681B1A091A23F07F4382
:101C980021F07F419E429CBFB3F5000FB1F5000FC4
:101CA800E6D8202A05D03B4620210420FFF740F83B
:101CB8000446AC4216D12C48002818BFAFF3008068
:101CC80001F04AFB03469AF82E0020280DD0DAF8D6
:101CD8000800991C081A0002C11700EB11600012D5
:101CE800002802DD0020BDE8F09F202D14D02A46F0
:101CF80041461846FFF7B2FA00281EBF8AF82E5050
:101D08000220BDE8F09F3B462A4620210420FFF729
:101D18000FF80020BDE8F09F9AF82A0018B102F0E9
:101D280095F88AF82AB09AF82B0020B1052001F01E
:101D380075FD8AF82BB0042001F070FD01F0DEFD7E
:101D480020208AF82E0009488068C0F800B00848AA
:101D5800C0F800B00120BDE8F09F0000DC0A0020B8
:101D6800DC0600205C0A002000000000380000208B
:101D7800080500402DE9F04F694E07468DB096F8EA
:101D88002D008846202855D096F82D0006F1080425
:101D9800C0EBC000A6F5806909EB800A20208DF809
:101DA800200096F82C000AAA00EB4000304409A94C
:101DB80090F82050F06802903068384401F062F9D9
:101DC800DAF80C000999652F084438D3554A0021E0
:101DD800D21B71EB010232D32268821A22F07F42B1
:101DE800B2F5000F2BD820F07F406060304684F8B1
:101DF800108090F82C000DF1200A202D1CBF4A49B4
:101E080001EB801B50D000BFC5EBC50009EB800873
:101E18006168D8F8086008F10800711A0902CA1741
:101E280001EB126109122DD4C08900283CD0E08949
:101E380048B139E040F66831702002F08DF90DB0F4
:101E48000120BDE8F08F20680C9001F0F9FFB0F593
:101E5800C67F08BF0D200BD0A0F54070563808BFCC
:101E68001C2005D0A0F500709F3814BF0020322038
:101E7800411C0C98301A0002C21700EB12600012C5
:101E8800884211DA8AF8005098F81810207C8142AC
:101E980005D8029860600DB00220BDE8F08F0BEB0A
:101EA80045004578202DAFD1052001F0B7FC1C4C2A
:101EB8004FF0FF30606094F82C309DF820202021EE
:101EC800202A03D00520FEF733FF04E003EB43008C
:101ED800204490F8200094F82C20134901EB82113B
:101EE80094F82D2001EB42014870206838442060A6
:101EF800FF2084F82900607E012805D1E068401E93
:101F080020F07F4001F0EEFA9DF82000202803D051
:101F18000648407802F0F4F90DB00020BDE8F08FD3
:101F2800DC0A00200040420F5C0A00203800002034
:101F3800F8B56B4D6B4A05F58064012694F82A10B4
:101F480008287CD2DFE800F0047097A9C741AEB337
:101F580019B901F097FF84F82A60E08A10B102F0FD
:101F680083F880B1FFF764FDFF2084F827006168DB
:101F7800B1F1FF3F03D0052001F09AFB40B1607E2C
:101F8800012810D109E040F66901702002F0E4F858
:101F980040F66E01702002F0DFF8E068401E20F085
:101FA8007F4001F09FFA94F82D0094F82D10C0EBB3
:101FB800C00005EB80004068C1EBC10155F8212045
:101FC80001B00121BDE8F040104794F82B0040B162
:101FD80019B901F057FF84F82A60002084F82B0013
:101FE800F8BDFFF725FD4FF0FF30606094F827003B
:101FF8008DF800009DF8000088B194F82D0094F841
:102008002D10C0EBC00005EB80004068C1EBC1019A
:1020180055F8212001B00621BDE8F040104740F6F0
:102028008501702002F098F8FFF702FD84F8266019
:1020380002F01AF820B194F82A0030B109E04AE019
:1020480040F69301702002F087F801F01BFF84F836
:102058002A6094F82D0094F82D10C0EBC00005EB11
:1020680080004068C1EBC10155F8212001B0002172
:10207800BDE8F040104701F0F7FCE08A10B101F02C
:10208800F3FF28B101F004FD002818BF6677F8BDFA
:1020980040F69D01702002F05FF8134806609068D2
:1020A8000660F8BD1078BDE8F84002F029B9FFF7DE
:1020B800BFFC94F82D0094F82D10C0EBC00005EB80
:1020C80080004068C1EBC10155F8212001B005210D
:1020D800BDE8F04010474FF40B61702002F03CF867
:1020E800DC06002038000020080500402DE9F34FE9
:1020F8008246EF4895B00068EE4DC005C00D0ED081
:10210800103840B20028B8BF00F00F0000F1E020FE
:10211800ACBF90F8000490F8140D40090DD0169843
:102128004FF0000B0078002818BF012818D040F2A3
:102138003B714FF0700002F00FF895F82D004FF04A
:10214800010B202807D01698007848B140F2377163
:10215800702002F001F840F23471702001F0FCFFA9
:10216800D54C24B1002140F23E70AFF3008000202E
:10217800CDE91000D149CAEBCA0001EB80004FF04D
:102188000109009024B1002140F24970AFF30080AA
:10219800B9F1000F0AD000BF95F82C604FF0000885
:1021A80085F82980BBF1000F07D038E0C448002823
:1021B80018BFAFF3008062B6EEE73746012020EA89
:1021C8000706C048402200EB871100EB861006F096
:1021D80014FB24B1002140F25E50AFF3008007EBFE
:1021E800470106EB4600294428440A8C028491F8EA
:1021F800221080F8221024B1002140F26250AFF37F
:10220800008024B1002140F25370AFF3008095F8AC
:1022180029008DF808009DF808000028B2D124B1E3
:10222800002140F25D70AFF3008002A801F09AF837
:10223800DDE90201CDE90E01334609AA0EA8169977
:10224800FFF794FA24B1002140F26470AFF30080E4
:102258009C4A0E9902EB861709A817F81A20012A3A
:1022680018BF022A38D1099A0A9BA2EB010222F070
:102278007F42A3EB0101CDF8448021F07F41022A7F
:1022880064D3B2F5000F98BFB1F5000F5ED84FF0D8
:10229800010814AB13AA3146FEF73EFF00285DD0B3
:1022A8009DF84C109DF8502033468A425AD005209C
:1022B800FEF73EFD07EB4A0148709DF84C002028C8
:1022C8001CBF07EB400080F801A057D032465146AA
:1022D8005FF00300FFF75EFC24B1002140F2697053
:1022E800AFF300807848002818BFAFF30080EFF301
:1022F800108972B624B1002140F26F70AFF30080EC
:1023080095F829008DF808009DF8080000287FF44A
:1023180039AF24B1002140F27770AFF3008009AFE4
:10232800009897E80E1000F10807B8F1000F87E849
:102338000E100D99816151D024B1002140F28470B2
:10234800AFF30080BBF1000F39D11FE03246514690
:102358000420FFF71FFC4FF00108BDE73246514645
:102368000420B7E7202919BF07EB4100407806EBA6
:102378004600284408BF90F820009BE706EB46017A
:10238800294481F820A0CDF844809FE7119810F0E7
:10239800FF0F14D095F82D00202810D124B100216A
:1023A80040F28970AFF3008031460220FFF724FC29
:1023B800109020B916980078E8B101282AD024B1E5
:1023C800002140F2A670AFF30080FF20BBF1000FA0
:1023D80018BF85F8290026D04FF0010824B1002144
:1023E80040F2B770AFF300801098384E022823D01F
:1023F800012829D02DE024B1002140F29170AFF3DB
:10240800008095F82C2051460420FFF7C3FB4FF0BD
:102418000108E3E7002C3FF4B5AE002140F29C70C0
:10242800AFF30080AEE695F82C200121914385F8A2
:102438002C1085F82900CFE7A8680E99401A06F0F5
:1024480082F8716821B904E071684FF0FF3001B17A
:102458008847B9F1000F24D024B1002140F2C77099
:10246800AFF30080B8F1000F11D095F82C0000EB05
:102478004000284490F82100202808D024B10021E9
:1024880040F2CE70AFF30080707801F039FF24B1CC
:10249800002140F2D370AFF3008017B04046BDE88A
:1024A800F08F0748002818BFAFF3008062B6D3E763
:1024B80004ED00E0DC0A002000000000DC0600203B
:1024C800000000005C0A0020000000003800002026
:1024D8002DE9F04F064600788DB018B10DB00020F8
:1024E800BDE8F08F8C480068C005C00D0ED01038CC
:1024F80040B20028B8BF00F00F0000F1E020ACBFE8
:1025080090F8000490F8140D4009E7D0834D844CEE
:102518004FF0010B002725B1002140F2E550AFF341
:10252800008094F82CA084F829704FF0000925B198
:10253800002140F2EA50AFF300807A482BEA0A08FB
:1025480000EB8A1100EB8810402206F056F925B1FD
:10255800002140F25E50AFF300800AEB4A0108EB1D
:102568004800214420440A8C028491F8221080F803
:10257800221025B1002140F26250AFF3008025B14E
:10258800002140F2EF50AFF3008008A800F0EAFE07
:10259800DDE90801CDE90A0143466A4631460AA841
:1025A800FFF7E4F825B1002140F2F550AFF30080C1
:1025B80094F82D0020281AD0E0680099091A090219
:1025C800CA1701EB1261091211D50099814202D98B
:1025D8000299491C0291DDE90021891A20F07F4205
:1025E800084420F07F40CDE900204FF0010925B1D3
:1025F800002140F2FF50AFF3008000990A98019A39
:10260800091A101A21F07F4120F07F40B1F5000F20
:1026180098BFB0F5000F09D84346694642480A9A60
:10262800FEF7C2FB59EA000029D142E00B98BDF839
:102638000EA0029009AA07A95046DDF8288000F0EC
:1026480021FD01F02FFA00F001FD814694F82D00DC
:1026580020283BD0E068401D20F07F40009981424F
:1026680002D90299491C0291DDE90021891A0090DA
:10267800084420F07F4001901F208DF80C0000983E
:1026880005F061FF411CBDF80E009DF80C201044B8
:102698000844C6E9040725B1002140F21A60AFF3E7
:1026A8000080D6E90410214A029BE3FB0210C6E928
:1026B800041094F829008DF814009DF814000028DF
:1026C8007FF429AF0DB00120BDE8F08F08F10908AB
:1026D800BAF1000F16D001F0C7FC98B901F0B0FBB1
:1026E800B0F5C67F08BF0D200BD0A0F54070563856
:1026F80008BF1C2005D0A0F500709F3814BF3846CD
:10270800322080440798814584BFA9EB00008044AB
:1027180028F07F40A2E7000004ED00E00000000080
:10272800DC0A00205C0A00200040420F0080841E62
:102738002DE9F14F924D8CB095F82C0000200890AF
:10274800069001208F4CA5F180094FF0000807463C
:10275800079024B1002140F2E470AFF3008007989D
:1027680000283CD085F8298024B1002140F2E97086
:10277800AFF3008095F82CA0402227EA0A0609EB5F
:10278800861009EB8A11834606F037F824B1002138
:1027980040F25E50AFF3008006EB46000AEB4A01B8
:1027A8002844294400900A8C028491F8221080F869
:1027B800221024B1002140F26250AFF3008095F856
:1027C80029008DF808009DF8080078B1002C1CBF7E
:1027D800002140F2EF70BCD0AFF30080B9E76A483F
:1027E800002818BFAFF3008062B6BBE724B1002110
:1027F80040F2F370AFF300800C981BF81000032828
:102808007ED1009A0C9992F82000884214BF4FF0AC
:10281800000A4FF0010A02F1200C8346202209EB3E
:10282800861303E0024603EB42004078884202D058
:1028380020280AD0F6E7202807D0834507D103EBE4
:102848004B0040788CF8000007E040460CE003EBB2
:10285800400003EB42014078487024B1002140F267
:10286800C940AFF300803846C34610EA0A0F18BFC4
:10287800BB4600284ED024B100214FF4FF60AFF3CF
:102888000080324601200C99FFF784F924B1002119
:1028980040F60100AFF300803C48002818BFAFF3B2
:1028A8000080EFF3108072B6079024B1002140F643
:1028B8000600AFF3008095F829008DF808009DF810
:1028C800080038B1002C1CBF002140F60A003FF474
:1028D80040AF81E7BBF1000F09D095F82D00202803
:1028E80005D131460220FFF787F90690F8B124B1E7
:1028F800002140F61E00AFF3008095F82C0000E0A0
:1029080008E027EA000085F82C00FF2085F8290058
:102918000120089024B1002140F62700AFF3008081
:1029280006981B4E022809D0012810D014E09CB14B
:10293800002140F61900AFF30080ECE700F00CFD31
:10294800A968081A05F0FFFD716821B904E07168EB
:102958004FF0FF3001B18847079848B124B10021F2
:1029680040F63C00AFF3008008980DB0BDE8F08F4A
:102978000548002818BFAFF3008062B6EEE70000F4
:10298800DC0A002000000000000000000000000039
:102998003800002010B5202811D20E4991F82C30AB
:1029A800A1F1800202EB831C1CF810303BB191F8B6
:1029B8002C3002EB831212F81020012A01D00020DB
:1029C80010BD91F82C2001460020FFF7E3F8012004
:1029D80010BD0000DC0A00202DE9F84F864E804625
:1029E80096F82C00A6F1800707EB801010F8180065
:1029F800002871D096F82C90804D25B1002140F622
:102A0800AE30AFF3008007EB891414F818000128E2
:102A180018D0C0B204281CBF0528062861D02DB1E3
:102A28004FF0000140F6BA30AFF3008001F0CEFC61
:102A380025B1002140F6BE30AFF3008014F818002D
:102A48000128E6D1012425B1002140F6C530AFF3B5
:102A58000080002C4BD0002086F8290025B10021E9
:102A680040F6CA30AFF3008096F82CB0012020EA77
:102A78000B0907EB8B1107EB8910402205F0BDFE0F
:102A880025B1002140F25E50AFF3008009EB490008
:102A980000EB060A0BEB4B003044018CAAF820101F
:102AA80090F822008AF8220025B1002140F26250F5
:102AB800AFF3008096F829008DF800009DF800001B
:102AC800E0B1002D1CBF00214FF43D60BBD000BF1A
:102AD800AFF30080B7E7FFE740F6A531702001F0BB
:102AE8003BFB4A4641460120FFF754F8A0E744481B
:102AF800002818BFAFF3008062B6ACE725B100210B
:102B080040F6D430AFF300809AF821300AF1210161
:102B180040461C464FF0200B07EB89120AF1220AA7
:102B280004E0A34602EB4B0C9CF80140844202D01F
:102B3800202C2BD0F5E7202C28D0A34204D102EB7F
:102B480043004078087005E002EB440002EB4B01BB
:102B580040784870BAF1000F11D025B1002140F239
:102B6800C140AFF300809AF80000A04207D125B118
:102B7800002140F2C440AFF300808AF800B05DB194
:102B8800002140F2C940AFF3008000E025B10021E8
:102B980040F6D830AFF300801A48002818BFAFF3CA
:102BA8000080EFF3108472B696F829008DF80000C3
:102BB8009DF8000038B1002D1CBF002140F6DE3022
:102BC8003FF441AF84E786F82C90FF2086F829006F
:102BD80054B1002D08BFBDE8F88F002140F6EB3056
:102BE800AFF30080BDE8F88F0548002818BFAFF3A1
:102BF800008062B6EDE70000DC0A0020000000005B
:102C0800000000000000000070B50D46064601F007
:102C180019FA0F4890F82C200024803800EB821015
:102C280010F8141029B1611CCCB2202CF8D3202044
:102C380070BD0848C4EBC40140F8216000EB810076
:102C4800214645600120FEF7A5FF204670BD000023
:102C5800DC0A0020DC0600202DE9F04F83B000F0EC
:102C68007BFB054600F04AFE844C6068B0F1FF3FEC
:102C78001CBF4FF0FF306060A07FDFF8049290B96E
:102C8800D4E90210401A20F07F404FF40C7105F08F
:102C980085FCE1680844281A0002C11700EB11609E
:102CA8000012C00F12D0607E20B394F827008DF870
:102CB80000009DF80000E8B100F07CFC94F82800C2
:102CC800F0B140F2F531702001F046FA94F82D0089
:102CD80094F82D10C0EBC00009EB80004068C1EBF0
:102CE800C10159F821200821904740F2DD317020B8
:102CF80001F032FAE81C20F07F4000F053FBDDE7DA
:102D0800012084F8280094F82D00202821D094F878
:102D18002D80202084F82D0084F82E00002084F8CF
:102D2800260084F82700206000F0C2FE207794F87F
:102D38002C6006EB4600071997F82000202858D089
:102D4800C0EBC00009EB800999F81A00012805D0EA
:102D58004FE04FF47E71702001F0FEF9B9F816B01B
:102D680001AA6946584600F08DF900F09BFE00F074
:102D78006DF994F82D00202804D0E068401D20F05B
:102D88007F401DE005F1090ABBF1000F16D001F0E4
:102D98006BF998B901F054F8B0F5C67F08BF0D205B
:102DA8000BD0A0F54070563808BF1C2005D0A0F500
:102DB80000709F3814BF0020322082442AF07F40E0
:102DC800D9F80820811A0902CB1701EB13610912FF
:102DD80000290EDC09F10803824202D29968491ED3
:102DE8009960D3E90021891A1860084420F07F40CF
:102DF800586031460120FEF7FFFE5FEA0009F8D06F
:102E0800204800EB861010F81800022804D132463A
:102E180041460620FEF7BEFEFF2084F8290097F8F9
:102E28002100194E20281CBF707801F069FA207F14
:102E380020B100F019FE002020776077B9F1020F69
:102E480011D0B9F1010F1CBF03B0BDE8F08F4FF0EE
:102E5800FF307168002904BF03B0BDE8F08F03B0EC
:102E6800BDE8F04F0847A068401B05F06CFB71688F
:102E78000029F4D103B0BDE8F08F0000DC0A00207F
:102E8800DC0600205C0A00203800002070B5424CA7
:102E9800054682B094F82D00202808D06068B0F16B
:102EA800FF3F09D040F6D921702001F055F940F6CE
:102EB800D821702001F050F994F82D003749C0EB63
:102EC800C00001EB8006B06805F03DFB0246F08AC1
:102ED800317D334B0844401C11189A4217D8314AA7
:102EE80090421BDCC2F1000C60451EDB56008E428E
:102EF800DCBF01F5F701A1F1F85105DD0029BCBFE0
:102F0800A1F5F70101F1F8514819994204D940F2A5
:102F18009E51702001F020F9954204DD40F29F5146
:102F2800702001F019F9654504DA4FF4B461702096
:102F380001F012F98642DCBF00F5F700A0F1F85065
:102F480005DD0028BCBFA0F5F70000F1F85001AA84
:102F5800694600F097F89DF804000F288CBF0120FF
:102F680000200099084420F07F41616094F8270010
:102F78008DF800009DF80000002804BF02B070BD65
:102F8800052000F095FB00281CBF02B070BD4FF46F
:102F98002E61702001F0E0F8DC0A0020DC06002039
:102FA800FF7F841E0040420F70B51C4C202184F81E
:102FB800201084F8211084F82210002084F82C00B6
:102FC80084F82D10421EC4E90002A07784F8260078
:102FD80084F827002077607784F82E1084F82A0078
:102FE80084F82B00A4F182011022887001F8040FE4
:102FF800521EFAD100F066FD094D012684F82860BA
:10300800FF202870074801F05DF9687001F0C8F9E1
:10301800A86000F0E1FC84F82F6070BDDC0A002095
:1030280038000020C51A000000B583B0684600F0DB
:1030380099F9009805F087FA019A034B0021E2FB01
:10304800030103B000BD00000080841E410B48F25C
:10305800376251430A0C094B510202FB030208482C
:10306800504300F586306E30400D5B4210FB03F391
:10307800B2EB532F88BF491C08447047F7C2FFFFC3
:103088006F0C0100430B48F2376C03FB0CF330B4B0
:103098001B0CDFF844C05C0203FB0C030F485843C9
:1030A8004FEA505C04EB0C0043F609541CFB04F493
:1030B80004F5807C43F60855A3EB5C2C2C440CF0FB
:1030C800FF0CB3EB542F84BF4FF0000C401C08607A
:1030D80082F800C030BC7047F7C2FFFF6F0C0100D8
:1030E8002DE9F0413B4DD5F80403DFF8EC8010F4EE
:1030F800803F4FF400664FF0E0274FF0000419D0EE
:1031080036480068B0B1C5F84041C7F88062D5F8C4
:103118004005D8F80010401A20F07F40022802D35A
:10312800B0F5000F06D94FF48030C5F80803042025
:10313800FEF7FEFED5F8040310F4003F1AD0284825
:103148000068B8B1C5F84441C7F880622548D0F88E
:103158004005D8F80010401A20F07F40022802D31A
:10316800B0F5000F06D94FF40030C5F80803052064
:10317800FEF7DEFED5F8040310F4802F1AD01A48A3
:103188000068B8B1C5F84841C7F880621748D0F858
:103198004005D8F80010401A20F07F40022802D3DA
:1031A800B0F5000F06D94FF48020C5F808030620B3
:1031B800FEF7BEFED5F80401002808BFBDE8F0817F
:1031C800C5F80441C7F880620948C168491CC16054
:1031D800BDE8F08100B0004004B5004040B10040B7
:1031E80044B1004004B0004048B1004008B000407D
:1031F800440000202DE9F041384D2878042868D093
:10320800A81C0122017859B1012908BF6A7002D0AF
:103218006978002958D002210170407800F0FEFA40
:103228002F4CD4F804034FF0000810F4002F4FF48B
:1032380080774FF0E0260AD02A48006838B103208A
:1032480000F0ECFAC6F880720320FEF771FED4F89D
:10325800040310F4802F0AD02348006838B10220F4
:1032680000F0DCFAC6F880720220FEF761FED4F89E
:10327800040310F4003F0AD01C48006838B101204C
:1032880000F0CCFAC6F880720120FEF751FED4F89F
:10329800040310F4803F08BFBDE8F08114480068BB
:1032A800002808BFBDE8F081002000F0B7FAC6F892
:1032B800807204202870C5F80480C4F80082BDE834
:1032C800F0410020FEF734BE40F2A3416C2000F02C
:1032D80043FFBDE8F0410720FEF72ABE4400002066
:1032E800008000404C8100404881004044810040FB
:1032F80040810040012211024FF0E0230020C3F872
:10330800801103F5C073BFF34F8FBFF36F8FC3F8FE
:1033180000110E4941F8042F431EC1F80433C1F8C7
:103328003C05C1F83C010A4BC3F84005C1F840010F
:103338001B1DC3F84005C1F844011B1DC3F8400517
:10334800C1F84801CA6003494870704700800040CE
:1033580004800040440000200148006870470000D5
:1033680004B5004030B4EFF3108C72B600250B4B57
:103378000B4A00BFD3F80415D3F804412CB1D16827
:10338800491CD160C3F80451F4E7D268BCF1000FBE
:1033980000D162B6C0E9001230BC704700B00040EE
:1033A800440000202DE9F047464E0546B71E337805
:1033B800B968012B04BFA942BDE8F0874FF040402F
:1033C800414A1060424A4148C2F8080302F1040C1D
:1033D8004FF00004002B62D03E48C2F84803CCF8F6
:1033E8004045C2F8444100BFD2F848014FF0E029F7
:1033F8004FF00108002801BFD2F8040100284FF45B
:103408000060C9F880024FF48030C2F80803C2F89F
:103418004803C2F840413048D0F800C0A5EB0C0C76
:103428002CF07F4CBCF1020F44D3BCF5000F41D8FF
:10343800C2F840554FF4803CC2F844C32BB102682F
:103448008A1A22F07F42022AF9D3C7F804803C7016
:10345800FFF750FF2148D0F8041564F30101C0F8C4
:103468000415D0F80825022161F30102C0F80825E7
:103478000421C0F81015C0F80C807968C0F8001253
:103488008015C9F88002C9F800011549C00508600F
:103498000420BD60707086F80080BDE8F087C2F82F
:1034A8004803C2F84045C2F84041CCF84045C2F84C
:1034B800444199E70020C2F8400540F297216C206A
:1034C80000F04AFE4600002008F50140FDFFFBFF22
:1034D80000B00040FDFFFAFF04B500400080004046
:1034E80004F5014070B52A4CA168814214BF01223D
:1034F8000022DFF8A0C09CF80050022D02D0002A5C
:1035080034D002E0002A08BF70BD62789AB3224B1B
:103518004FF080421A60214B9213C3F80823C3F876
:1035280048230022C3F840211D4A1668861B26F04E
:103538007F46022E24D3B6F5000F21D8C3F84005E4
:103548004FF48036C3F844632DB11368CB1A23F0C7
:103558007F43022BF9D3134B02214A071A60A0605C
:1035680004208CF801008CF8001070BD40F2A521F1
:103578006C2000F0F1FD40F2A9216C2000F0ECFD78
:103588000020C3F8400540F2B5216C2000F0E4FDAE
:10359800440000204600002008F5014000B000402B
:1035A80004B5004004F501400148806870470000F8
:1035B800440000202DE9F0413648354AC0F8082378
:1035C800DFF8D4C0031D00219CF8004084B1334AC1
:1035D800C0F84823C3F84015C0F84411D0F8482172
:1035E8000123002A04BFD0F80401002811D10AE001
:1035F800C0F84823C0F84015C0F84011C3F840157A
:10360800C0F84411EAE74FF0E0224FF40060C2F836
:103618008002022C04D040F2C1216C2000F09CFDF5
:103628001F4E30681F4CC01C20F07F40A2681E4D02
:1036380090420BD03768D71B27F07F47042F05D35C
:10364800B7F5000F02D8FFF7ADFE1BE03068101A7F
:1036580020F07F40022813D3B0F5000F10D8134A8A
:103668004FF080401060636021706B60EB60400039
:10367800111F086004208CF801008CF8003001E06C
:10368800636021706068C5F80002BDE8F081000041
:10369800FDFFFBFF00B0004046000020FDFFFAFFE1
:1036A80004B50040440000200080004008F50140B7
:1036B8002DE9F041544A0025012492F800C05378BE
:1036C8004FF4A07607287DD2DFE800F00404040454
:1036D800585858004D4A9768B7F1807F04BF527810
:1036E800002A03D0BCF1020F05D026E040F2513188
:1036F8006C2000F031FD1A1FD2B206EB820202F1F3
:10370800804606F530460022BCF1010F03D0BCF11B
:10371800020F08D00EE0042B24BF3768002F08BF23
:103728004FF0004206E0042B24BF3768002F08BF83
:1037380042F0804212F0804FE5D1DFF8D4C000F1AA
:10374800100204FA02F2CCF808234FF0400303EB0E
:103758008003DBB263441C600CEB8000D0F840357A
:10376800A1EB030323F07F43032B26BFC0F84015CA
:10377800CCF80423C0F8405537D23CE0BCF1000F28
:1037880006D0834204D140F271316C2000F0E4FC91
:10379800021FD3B2032B04D34FF4E6716C2000F060
:1037A800DBFCDFF870C003F1100204FA02F2CCF877
:1037B8000823CCF8482306EB83034CF80350164B38
:1037C8001B6800E01AE0001FCB1A23F07F43C0B249
:1037D8000CEB8000022B0BD3B3F5000F08D8C0F810
:1037E8004015CCF80423CCF844230120BDE8F0812F
:1037F8000021C0F840150020BDE8F08140F2753185
:103808006C2000F0A9FC00004600002044000020C5
:103818000080004000B0004004B500402DE9F843A6
:10382800012600274FF4A078072851D2DFE800F0DE
:10383800040404041919190000F1100106FA01F230
:103848002649C1F8082301EB80030022C3F840256C
:1038580008EB80028F50224951F820000090BDE803
:10386800F883204D011FCCB2297879B16A78824259
:103878000CD11D4A4FF040401060012908BFFFF7E6
:1038880039FD2F7019494FF080708860184904F18C
:10389800100006FA00F0C1F80803C1F84803A000B8
:1038A8000844D0F84005134A1268801A20F07F4077
:1038B800022807D301EB84020020C2F8400508EB78
:1038C80084000F500C4850F824000090BDE8F8839D
:1038D80040F2F9316C2000F03FFC0000008000400D
:1038E800408100404600002008F5014044000020C7
:1038F80000B0004004B5004040B100402548244ACB
:10390800C0F808232449031D91F800C00021BCF128
:10391800000F10D0214AC0F84823C3F84015C0F85A
:10392800441100BFD0F84821002A04BFD0F8040190
:10393800002811D10AE0C0F84823C0F84015C0F8A3
:103948004011C3F84015C0F84411EBE74FF0E022EE
:103958004FF40060C2F8800211484FF0FF32C0F8FF
:103968000823C0F84015C0F8401100F10402C2F85D
:103978004015C0F8441102F10402C2F84015C0F81D
:10398800481102F10402C2F84015C0F84C11704702
:10399800FDFFFBFF00B0004046000020FDFFFAFFDE
:1039A8000080004010B507280DD2DFE800F00404BD
:1039B800040406060600064902E0001F0549C0B2D5
:1039C80001EB800010BD40F299316C2000F0C4FB7F
:1039D8004081004040B1004070B51F4800240421D8
:1039E8000470801E01708905C4608160FFF782FC45
:1039F80001254FF0E02CEB02CCF88031BFF34F8F5C
:103A0800BFF36F8FCCF88032144845608560144945
:103A18000A68002AFCD1511EC0F80813C0F84813E0
:103A2800C0F84045C0F840410E49C1F84045C0F8CB
:103A38004441091DC1F84045C0F84841C0F8044157
:103A4800CCF8003105604FF48271C0F844130221AC
:103A5800C0F8041370BD00004600002000B000400C
:103A680004B5004004B00040084890F90000002860
:103A7800B8BF704700F01F01012202FA01F14009A6
:103A8800800000F1E020C0F80012704778010020A3
:103A98000348007803280CBF01200020704700006D
:103AA8006801002001484088704700006801002034
:103AB80003480078022816BF032801200020704719
:103AC8006801002002480021017041807047000011
:103AD800680100202DE9F041164C607A002827D0B3
:103AE8004FF480718D05284604F07CFD80464FF424
:103AF8008271284604F076FD00260746B8F1000FCB
:103B080009D00120C5F80803207920B12671E069A1
:103B180008B18047E66137B1C5F804610220C5F8ED
:103B2800080300F04DFA4046BDE8F04100F058B8EF
:103B3800BDE8F0815400002010B504F0FDFD30B957
:103B480004F01BFE18B904F04EFE002802D002490A
:103B58000220086010BD0000340C004070B500F071
:103B680091F900F081FA094C4FF0804530B1FFF728
:103B7800E3FF012028610420A07204E00320A07262
:103B88000120C5F804030020E07170BD5400002036
:103B980070B5124CA079E0B1E179401E814218DA83
:103BA80000F062FA054600F04BFBA179012902D921
:103BB800E179491CE1710DB1616900E02169411A9F
:103BC800022902DA11F1020F07DC0DB1606100E091
:103BD8002061BDE87040FFF7C1BF70BD54000020F0
:103BE8002DE9F04706464FF080454FF48671284688
:103BF80004F0F8FC80464FF48871284604F0F2FC83
:103C0800274C8246277804F1080004F05FFD10B1C4
:103C180040F2B91116E04FF0010946B1A07A032825
:103C280005D10420A072FFF787FFC5F81090002681
:103C3800B8F1000F18D0C5F80C61A07A042804D098
:103C480040F2CB116D2000F087FA04F075FD28B919
:103C580004F093FD10B904F0C6FD08B111480660E0
:103C68000220A07200F0F2F8BAF1000F08D0C5F8EF
:103C78001061A07A022801D1FFF78AFFC5F81490D5
:103C88003FB12670A07A022801D1FFF767FF00F044
:103C9800DDF8BDE8F0470248083004F02EBD00000A
:103CA80054000020340C00402DE9F0475F4C0027F9
:103CB8000646A761427881780078E0726271A17146
:103CC800E7714FF001084FF08045052825D2DFE85D
:103CD80000F0100306202200C4F8188009E000F064
:103CE800D1F80121284604F082FC0028F9D00220EE
:103CF800A06104F0A8FCB0B100F0D0F9217E01F079
:103D0800030188420FD1B07950B10220C5F80403ED
:103D180070E04748ECE74748EAE740F23A314DE0BF
:103D280000F090F966E0C5F80C804FF4827AC5F887
:103D38000471A069C5F8180504F0EAFC40B904F05C
:103D4800F1FC28B904F005FD10B904F016FD38B1EE
:103D58004FF08050D0F844023749C0F34230086031
:103D680004F0D6FC40B904F0DDFC28B904F0F1FCFD
:103D780010B904F002FD18B12F491031C1F80080C4
:103D8800C5F808800220C5F80403B07990BBD5F8BF
:103D9800040310F0020F0FD0DFF8A090D9F800103C
:103DA800C94341F3001101F10108D9F8001041F0AD
:103DB8001001C9F8001007E040F2FB216D2000F067
:103DC800CBF900BF00F002FB5146284604F00AFC7C
:103DD8000028F7D000F036F9B8F1000F05D1D9F86E
:103DE800001021F01001C9F800100220C5F80803DE
:103DF800C5F80471A07970B1307860B900F034F971
:103E0800064600F01DFA6FF0004116B1C4E904102F
:103E180001E0C4E904010121284604F0E8FB08B1E7
:103E280000F01CF9A772BDE8F087000054000020DC
:103E380001000200010003003C05004010ED00E015
:103E48000148C089704700005400002010B5EFF306
:103E5800108472B60A48417829B14178491E4170E8
:103E6800417829B108E04FF48E716D2000F074F9A3
:103E7800807808B900F006F9002C00D162B610BDB0
:103E88005400002010B5EFF3108472B6064841784C
:103E9800491C41704078012801D104F0BFFB002C77
:103EA80000D162B610BD000054000020054810B5CE
:103EB800C17821B100210171C170FFF7C7FF00204F
:103EC80010BD00005400002070B50C4CE17861B9B9
:103ED8000125E570E061FFF7D5FF00F0C5F830B1C6
:103EE800E06910B180470020E061002070BD4FF00C
:103EF80080402571C0F80453F7E700005400002003
:103F08002DE9F04105006FF015003FD0297804290C
:103F18003CD8002969783BD0002937D1A9780029F5
:103F280034D1002004F029FB002004F019FB4FF0E5
:103F380080484FF0FF31C8F808130026C8F8006120
:103F4800C8F80461C8F80C61C8F81061144C6670B0
:103F5800A888A08104F059FB012708B1E7706770B1
:103F68000121404604F043FB08B100F077F840F225
:103F7800F550E0812846FFF797FE6772002004F0AD
:103F8800EFFA4FF0E0213046C1F80071BDE8F0814A
:103F98000029FBD02029F9D8A9782129C1D9F5E72A
:103FA8005400002001488089704700005400002018
:103FB8000248807A002800D0012070475400002071
:103FC800F8B51F4DE87A00280FD1287E00F00300CD
:103FD80004F029FB002808D0EFF3108172B6FFF730
:103FE800E7FF18B1002900D162B6F8BD0126AE720C
:103FF80001B962B618204FF08044C4F80803A661DE
:104008004FF42070ADF80000BDF80000411EADF877
:104018000010F9D20027C4F80C71C4F810710848D0
:10402800083004F066FB2F70FFF798FD6661687929
:1040380000F07F00C4F838051820C4F80403F8BD60
:104048005400002010B5044C207E00F0030004F05A
:10405800EAFA0028F8D010BD5400002001490120D8
:1040680008707047790100204FF08040D0F80001B7
:1040780018B903480078002800D0012070470000D4
:10408800790100204FF08040012141600021C0F8F3
:10409800001101480170704779010020024800684A
:1040A80000F00300704700001C04004010B531B157
:1040B800012907D040F2023105A000F021F8D0F81C
:1040C800140401E0D0F8080400F0010010BD00005D
:1040D8006E72665F636C6F636B2E6800BFF34F8F01
:1040E80005480168054A01F4E06111430160BFF326
:1040F8004F8F00BFFDE700000CED00E00400FA055B
:1041080072B6034A526802B19047FFF7E7FF000012
:1041180074000020064810B50021016001210160EB
:10412800084604F0A7FABDE81040012004F095BA4B
:10413800FC1F0040074810B501214160891EC0F8E6
:1041480008130C2004F096FABDE810400C2004F087
:1041580084BA000000C000400EB572B60F4A556818
:10416800D5B1002203466E460A2403E0B0FBF4F002
:10417800521CD2B20028F9D1B05409E0B3FBF4F0D4
:1041880004FB1030B3FBF4F3521ED2B23030B054FB
:10419800002AF3D13046A847FFF7A0FF740000209B
:1041A8002DE9F041184C0646174660780D4618B1BF
:1041B8004FF0FF30BDE8F081FCF71CFD06B9134E47
:1041C80067602570FFF7A6FFFFF7B4FF3046FFF7DB
:1041D80097FE0600EED1FEF7E7FEFFF7F1FE04F0CA
:1041E8008EF9284604F039FA0120002D09DB05F084
:1041F8001F0100FA01F16A09920002F1E022C2F8F7
:10420800001160703046D5E7740000209E860000DB
:10421800014840787047000074000020074890F972
:104228000000002809DB00F01F020121914040092D
:10423800800000F1E020C0F80012704774000020F0
:104248002DE9F04101264FF0E02231034FF000083C
:104258004046C2F88011BFF34F8FBFF36F8F164CE3
:10426800C4F800010C2004F024FA144D2868C04357
:1042780040F30017286840F010002860C4F8046371
:1042880026607F1C02E000BF00F0A0F8D4F800010F
:104298000028F9D01FB9286820F0100028600848C5
:1042A80005686660C4F80863C4F800810C2004F04F
:1042B80000FA2846BDE8F08100C0004010ED00E09B
:1042C80008C5004010B5024605200C4904E000BFAF
:1042D80001EBC0031B7933B1401EC0B2F8D24821AC
:1042E8006920FFF739FF41F8302001EBC0010022B7
:1042F8004A718A7101220A7110BD00000C0B00205E
:1043080010B5052801D3582106E00A4901EBC00081
:104318000179012903D059216920FFF71DFF41794F
:104328008279491CC9B28A4200D04171BDE8104067
:10433800FFF774BF0C0B002010B5052803D34F21DD
:104348006920FFF709FF034A002102EBC000017151
:1043580010BD00000C0B002070B505250E4E0F4C4B
:1043680016E0217806EBC1000279012A08D14279CA
:1043780083799A4204D04279827156F83100804795
:104388002078401CC0B22070052801D3002020707E
:104398006D1EEDB2E5D270BD0C0B00207A01002035
:1043A80000B504F0B5F940B904F0BCF928B904F037
:1043B800D0F910B904F0E1F908B1024800BD02488B
:1043C80000BD00000C05004000E7014010B504F0F6
:1043D800D4F930B3EFF31080C8B1002172B6124897
:1043E80002680368C2F3001243F0100303604FF041
:1043F800E023D3F80042D3F804321C4300D040BF76
:1044080020BF00BF00BF00BF00BF12B105E00121FF
:10441800E4E7026822F010020260002900D062B6C8
:1044280010BD20BF10BD000010ED00E001490120C3
:10443800887070477C000020CF890000078A000040
:10444800F1890000DF890000EB890000D9890000AC
:10445800CD890000CB890000038A0000F78900009D
:10446800E5890000D3890000C5890000BD890000E6
:10447800C1890000B789000001480068006800474A
:104488009000002001480068406900479000002023
:10449800014A1268D2681047900000200149096853
:1044A800C96A084790000020014800680069004771
:1044B80090000020014A126892681047900000207E
:1044C80001490968496A08479000002001490968BC
:1044D800896A084790000020014B1B685B681847F1
:1044E8009000002001480078704700007B01002000
:1044F8001FB5144C207A8DF80100E0798DF8000082
:10450800A079ADF804006079ADF80200684602F0C1
:10451800A7FB08B1902110E0E068029002A802F021
:10452800B5FB08B1942108E007480068039003A888
:1045380006F035F9002803D09821032000F0EAF8A6
:104548001FBD0000340B0020A447000010B528B19F
:104558001422044904F051F9002010BD6FF0150031
:1045680010BD0000C847000070B56FF02C0390BB69
:10457800244C607808B1981170BD09B36FF0150527
:104588003AB32148082937D2DFE801F03604070A90
:10459800181B1E291178017023E01178417020E062
:1045A8009178B1B1D178A1B111781B2911D3517883
:1045B8001B290ED31168C0F8051012E01168C160FC
:1045C8000FE0117881700CE0E17829B111780229A7
:1045D80002D2284670BD0FE01178017401E01188FD
:1045E800418201220849002004F025FAB0F5803FF5
:1045F80004DB6FF00B00EDE71846EBE70121A17033
:10460800E8E7000094000020340B002010B5074CA8
:10461800607820B102F048FD2078FFF78DFE00F0A9
:1046280029FD00F003FE0020607010BD94000020FA
:1046380070B50C46050019D0C4B100F0E7F8C0B158
:104648002846FFF73FFE0C4D00220C4928702046F3
:1046580004F0F1F906F0ADFB0021287802F014FD12
:10466800FFF746FF01206870002070BD6FF015004D
:1046780070BD4FF0FF3070BD94000020340B002057
:1046880030B589B005000CD0FFF7C2FD4FF0FF34FC
:1046980020B1FFF787FCB0F5FA7F05D9204609B0AD
:1046A80030BD6FF01500FAE7154C1648656000F04C
:1046B800C3F900206070A070E070014620226846AF
:1046C80004F015F920221049684604F096F82022D3
:1046D80069460E4804F091F8EFF3108472B66FF053
:1046E8000C0000F0D5FC0A4800F0ACFD18B1AB2175
:1046F800032000F00FF804B962B60020CFE70000ED
:1047080094000020F9440000A8470000340B002062
:10471800414800000EB572B6154A5568DDB1002251
:1047280003466E460A2403E0B0FBF4F0521CD2B2F2
:104738000028F9D1B0540AE0D8B2B0FBF4F7B3FBC3
:10474800F4F304FB1700521ED2B23030B054002AE2
:10475800F2D13046A847BFF34F8F06480168064A92
:1047680001F4E06111430160BFF34F8F00BFFDE723
:10477800940000200CED00E00400FA05064810B58E
:1047880081784078014302D04FF0FF3010BD02F02D
:1047980099FC002010BD00009400002001000000DA
:1047A80001010100001B1B03020000004C1D00005A
:1047B80003001F00000000000000000000000000CF
:1047C8006D90412A38E8AD1729A503383927D785D0
:1047D8001F85D8E1054A10B5526812B1BDE81040EE
:1047E800104792210420FFF795FF0000540B00208A
:1047F800054A10B5926812B1BDE8104010479821DB
:104808000420FFF787FF0000540B002005480168CB
:1048180029B1416819B1806808B1012070470020AA
:1048280070470000540B002002490DC881E80D00B4
:1048380000207047540B0020F8B5124C002625685C
:1048480011E00098022802D003280CD106E0206865
:1048580010B10020266005E028210CE0206868B12E
:1048680001202660A847684600F0B2FC0028E8D07E
:10487800052805D035210420FFF74CFF2D21FAE744
:10488800F8BD00009C0000202DE9FC41294C05469C
:10489800001D04F58277A060387858B1BA783C4694
:1048A800791C2846921C03F0A8FF002020700420E1
:1048B800BDE8FC811F4800F0D7FF0646022802D059
:1048C800042E05D026E01B49284604F010F921E003
:1048D8002078112804D10A213E2004F0F4F818B1F8
:1048E8002078082805D009E01249284604F0F7FA8C
:1048F8000AE005213E2004F0E6F868B10D49284693
:1049080004F023F90028C7D0A978287804F0DBF848
:104918000028C1D03046CBE7A088ADF8000001A937
:10492800684604F0F5FB0028B6D0AA210820FFF756
:10493800F1FE0000600B002070B50A7882703AB36F
:10494800012A25D81323037000230AE001EB43044E
:1049580000EB4305A678EE706488240A5B1C2C7172
:10496800DBB29342F2D300230BE000BF01EB430517
:1049780000EB43042E796671AD882D0A5B1CA57186
:10498800DBB29342F2D3012101EB8200C0B270BDC9
:10499800002070BD402803D2401EC1B2054805E082
:1049A800FF2805D04038C1B20248083004F0C1BA27
:1049B80001207047A0000020401EC1B2014804F049
:1049C800B8BA0000B0000020024902680A614068D5
:1049D80048617047A0000020054902680A604068E5
:1049E80042F48C220A60034A104348607047000072
:1049F800A0000020F807400207484FF0FF310022CE
:104A08000160C90C416000F108011F200A604A607A
:104A18000831C1E900027047A000002010B5FFF777
:104A2800EBFF05F08DFF04460248006800B180479F
:104A3800204610BDB80000200149086070470000FA
:104A4800B8000020022101804180002101716D2100
:104A5800417144F29011C180014981600020704782
:104A68002A38E8AD10B5022804D34FF40171172095
:104A7800FFF750FE0149085C10BD0000680D0020DA
:104A8800F8B5050000950DD0002608784978044649
:104A9800A14200D90C46AA0706D040F2CB11172034
:104AA800FFF738FE0126F0E7124F3870797031466B
:104AB800684600F0D3F800210B460098C01C20F08F
:104AC8000300009066B907EB8102D060002005E082
:104AD800D2F80CC04CF82030401CC0B2A042F7D32A
:104AE8000098491C00EB8400C9B200900229E4D365
:104AF800401BF8BD680D002070B50446857900F0AC
:104B0800E9F80C4AE17902EB85020EE0D36853F824
:104B1800213043B1481CE071A180D06850F82100D1
:104B28002060002070BD491CC9B28142EED3E171FA
:104B3800052070BD680D0020F0B421B1012902D014
:104B4800F0BC002070470F4A00252B464FF6FF7433
:104B580002EB8106575C0AE05A19D6F80CC092B2EB
:104B68005CF822C0BCF1000F04D05B1C9BB29F42D2
:104B7800F2D8224602801046A242E1D0F0BC00F0F2
:104B880035B80000680D00202DE9F0410646A0F573
:104B98007F400C4643F20207FF3820D0022C02D394
:104BA8000720BDE8F081304600F048F8050016D02F
:104BB8000C48294650F82420304690470A480021DE
:104BC80000EB8407F86840F82610204600F078F8D3
:104BD80002462946786804F090FB0020E1E7384651
:104BE800DFE70000F44C0000680D002070B50E46A9
:104BF800054604F0BCFB58B10F4800EB8604E0689A
:104C080050F8250038B140F28B111720FFF782FDCC
:104C18004FF4C571F9E7606800280BD0304600F002
:104C28004FF80146606804F010FB002802D0E168E4
:104C380041F8250070BD0000680D002070B50C46D5
:104C4800054604F094FB002805D0034800EB8400D7
:104C5800C06850F8250070BD680D00202DE9F843A4
:104C6800164E8846054600242868C01C20F003001C
:104C78002860204600F024F8315D4843B8F1000F61
:104C880001D0002200E02A680146009232B10027D4
:104C98004FEA0D0004F00AFB1FB106E001270020CF
:104CA800F8E706EB8401009A4A602968641C084406
:104CB800E4B22860022CD7D3BDE8F883680D002041
:104CC800034931F810004FF6FC71C01C08407047CA
:104CD800F04C0000034908784978884200D2084619
:104CE80070470000680D0020E80218013DA300008D
:104CF800A19B00002DE9FF4F244C064681B0206897
:104D08009A46934658B1017AB14203D9406850F89F
:104D1800260040B143F2020005B0BDE8F08FA5219E
:104D28001820FFF7F7FC1946029804F043FB804669
:104D380058460E9904F034FB054608EB0500001DA3
:104D480087B22068A1463946006804F07EFA04005C
:104D58001AD0678025802946201D0E9D07465A4691
:104D68000923009504F01EFA2088414638440A2396
:104D7800029ACDF800A004F015FAD9F800004068AE
:104D880040F826400020C7E70420C5E7BC00002003
:104D980070B5144C23688BB1197A814212D95A68BC
:104DA80052F8201071B1002542F820504A8818683E
:104DB80004F0A3FA216800200A7A0CE0C621182022
:104DC800FFF7A8FC43F2020070BD4B6853F820308F
:104DD80033B9401CC0B28242F7D8086804F082FA9E
:104DE800002070BDBC0000202DE9F0410D460400F4
:104DF80090464FF0000606D00027A00705D0862170
:104E08001820FFF787FC0127F7E7CDB111460020EE
:104E180004F04CFA0C3000EB85068FB90A4F04F108
:104E28000C00AA003C602572606000EB85002060E1
:104E38000021606803F05BFD4146386804F036FAEB
:104E48003046BDE8F0810000BC000020094910B5DB
:104E580002460968002049B10B7A934205D949688E
:104E680051F82210002900D0081D10BDEC2118208F
:104E7800FFF750FCBC0000200A4910B5024609683B
:104E8800002059B10B7A934207D9496851F822108A
:104E9800002902D031F8040B084410BDFA2118206B
:104EA800FFF738FCBC00002070B51E4B456804466F
:104EB8000022A1B101206070588881085FF00000CD
:104EC80004EB400304EB80061A83198400FB0153AA
:104ED80073602318401C1A750428F1D370BD6270E2
:104EE8005FF0000004EB40010A830A8404EB8001B0
:104EF8004A602118401C0A750428F3D35888B0F575
:104F0800FF7F01D2460800E0FF2604F0C7FA65607B
:104F180020842918A1606684E560A0842161E68464
:104F280070BD0000C00000202DE9F04158B10025F7
:104F38001144244ECCB200273470810705D04E218D
:104F48000920FFF7E7FB0125F2E71F2B04D84FF6EE
:104F5800FF7101EA830109E05900FF2B0CD903F125
:104F6800FF02B2EB430F00D2114689B24FF6FC7232
:104F7800C91C114035B107E07C22B2EB430FF4D3D2
:104F88007C21F2E77060718004EB840207EBC203B6
:104F9800002276684FF0010C0DE04DB902EB820754
:104FA80000EB030E06F837C006EBC707C7F804E0A6
:104FB800521C0B44D2B2A242EFD3DB1D23F00700F0
:104FC800BDE8F081C000002070B5104A002051688B
:104FD800127814E000EB800311F833306BB100EB6A
:104FE800800011EBC0040CD00025A57001212046DB
:104FF800FFF75AFF2570204670BD401CC0B2904292
:10500800E8D3A9210920FFF785FB0000C000002094
:10501800044810B54088840804F040FA844200D35C
:10502800204610BDC000002030B50D490120486061
:10503800821EC1F808230B4988600023C1F800329A
:10504800C1F80823084C2360251D28608860C1F832
:1050580008232360286006490448086030BD000022
:1050680000E0004000F0004000F500400000F63F7E
:1050780008F5014010B5FFF7D7FF04F0E2FA03493D
:105088000148086010BD00000000F63F08F5014027
:1050980010B50446FFF7C8FF04F0D3FA00F088F80B
:1050A800054904480860204600F0B8F8BDE81040FB
:1050B80000F0DCB80000F63F08F501402DE9F84F94
:1050C8008246384803F002FBDFF8D8B028B1012641
:1050D8000BF10100FF21017000E000264FF48075FC
:1050E800314C4FF000082F1D01216160C4F8008188
:1050F800C4F80481C4F804A52160DFF8B0901CE06E
:10510800D9F80000C00618D50E2004F0A9FAEFF36C
:105118001080009072B603212046C4F80413294673
:1051280004F0ABFA30B93946204604F0A6FA08B9BB
:10513800FFF74CF9009800B962B62946204604F0FA
:105148009CFA28B93946204604F097FA0028D7D0A7
:105158003946204604F091FA0028C5D106BB9BF8D1
:1051680001108DF80010009900919DF8001009B108
:10517800012500E000250BF1010080F800800320E4
:10518800C4F80803C4F80481C4F800810E2004F0B0
:1051980067FA044803F0B1FA15B11120BDE8F88F99
:1051A8000020FBE77C01002000E0004010ED00E05B
:1051B80010B5064803F09DFA18B127211D20FFF706
:1051C800A9FA02480021417010BD00007C010020AE
:1051D80070B511490A68EAB100231D4601244A68DE
:1051E800521C4A60092A00D34D600E7904FA06F26F
:1051F8000E6816420BD0EFF3108372B60C68944316
:105208000C6003B962B649680160002070BD5B1C80
:10521800092BE4D3052070BDC800002002480021F6
:105228000160416070470000C800002010B5044CC0
:105238002078FF2803D0FFF77FF8FF20207010BDEB
:105248000000002010B5084C617809B10F2010BD8E
:10525800FFF738F82070FF2801D0002010BD782112
:105268001F20FFF757FA0000000000200149002026
:10527800487070470000002005498A8C824205D199
:10528800002081F822004FF6FF70888470470000E4
:10529800180E00200A4A10B1012807D00EE05078F5
:1052A80060B1D2F802000860D08804E0107828B114
:1052B80090680860908988800120704700207047B6
:1052C8007E010020084A012338B1012804D1137057
:1052D8000868906088889081704753700868C2F8A1
:1052E80002008888D08070477E010020064910B1EE
:1052F800012802D005E0487800E0087808B10120CC
:1053080070470020704700007E010020014908779F
:1053180070470000A20600200048704711100020C6
:1053280004498A78824203D9084490F843017047B7
:10533800002070473E0E002004498A78824203D933
:1053480001EB001083307047002070473E0E0020AC
:10535800054A01EB410102EB41010268C1F80B214A
:105368008088A1F80F0170473E0E002004498A7812
:10537800824203D901EB0010C01C7047002070471F
:105388003E0E002010B540F2D3120021084803F069
:10539800AEFA0822FF21074803F0A9FA05480021C0
:1053A800001F017041704FF46171418010BD000011
:1053B8003E0E0020700100200B4B10B59C788442F3
:1053C8000FD9184490F8030103EBC00090F853314B
:1053D8000B70D0F854111160B0F85801908001207A
:1053E80010BD002010BD00003E0E002007498A783D
:1053F800824209D9084490F8030101EBC00090F8F3
:105408005A0100F001007047002070473E0E00204E
:1054180001484088704700006C01002005498A78DF
:10542800824203D9084490F83B0108B10020704734
:10543800012070473E0E002070B50D46064600F06C
:10544800C1F8104C102807D004EBC00191F85A118C
:10545800C90701D0012070BD6178082910D2102831
:1054680008D004EBC000012180F85A116078401C74
:105478006070EFE701222946304600F087F8F5E72B
:10548800002070BD3E0E002070B50B4D2878401EE0
:1054980044B20AE005EBC40090F85A01C00702D0F4
:1054A800E0B200F0EDF8641E64B2002CF2DA0349B1
:1054B8000020487070BD00003E0E00206C010020E6
:1054C8002DE9F04100242546184E29E006EBC507D2
:1054D80097F85A01C00721D0284600F043F8034640
:1054E800FFF744FF01460020102B09D0F21892F86C
:1054F8003BC1BCF1010F02D092F84B2102B101204F
:10550800401E01420AD10A4807F5AA7103552046F0
:10551800641C97F85321E4B202F002FB6D1CEDB253
:105528003078A842D2D8BDE8F08100003E0E0020B5
:10553800700100200246094810B500780B4658B1A2
:105548000748817841B10BB1C01C01E004488330A1
:1055580001F00EFE012010BD002010BD6C010020DE
:105568003E0E0020084910B5034600208A7806E060
:105578000C1894F803419C4204D0401CC0B28242EB
:10558800F6D8102010BD00003E0E002070B50C4B60
:1055980004461878451C1D70102803D3462128207E
:1055A800FFF7B8F803EBC0030D68C3F854518988B6
:1055B800A3F8581183F8534183F85A2170BD0000AD
:1055C8003E0E0020F0B51A4C0346002025782AE04C
:1055D80004EBC0020F7892F854C192F8536187EA3D
:1055E8000C075E403E444F7892F855C187EA0C0795
:1055F8003E448F7892F856C187EA0C073E44CF782C
:1056080092F857C187EA0C073E440F7992F858C1BF
:1056180092F8592187EA0C073E444F795740F742E0
:1056280004D0401CC0B28542D2D81020F0BD000082
:105638003E0E002070B50546FFF794FF10281CD1D8
:105648000E4C2078401EC0B22070A84215D004EB42
:10565800C00204EBC50102F58070D2F85321C1F8ED
:105668005321D0F85700C1F857012078FFF77AFF87
:10567800102802D0204480F8035170BD3E0E00204F
:1056880005494A78521E4A7001EBC001002281F890
:105698005A21FFF7CFBF00003E0E00202DE9F0474A
:1056A800044600F180054FF0010971B104F19E072D
:1056B8007E1E012920D0022945D003291AD1394656
:1056C8003046BDE8F04704F02AB94FF43A72002199
:1056D80003F00DF985F81D90204868660720A86634
:1056E80014F8E40F20F004002070FE2085F89C00D8
:1056F8007F206874BDE8F0874FF00008A4F8268280
:1057080084F81B82216916480A460844B0FBF1F068
:10571800C4F8BC0040F6B830A4F8C000638B284633
:1057280000F020F83946304604F0F9F803F041F863
:1057380018B1606900F04EFA10B184F80C82D9E70C
:1057480084F80C92D6E70169B4F8CA32D4F8C422B6
:105758002846BDE8F04700F005B800002F4904309E
:105768007FC3C90110B50024A0F8444030F8484F61
:105778004C43B4FBF2F420F8104940F2712463431F
:1057880002EB03135B1EB3FBF2F3C381094BB3FBBC
:10579800F2F35B1C83820389634302EB03135B1EF2
:1057A800B3FBF2F3436003684B43B3FBF2F10160D0
:1057B80010BD0000005A62020449897C490700D4E0
:1057C80008B1002070470120704700007C0D0020C0
:1057D8000348807C800701D401207047002070476F
:1057E8007C0D00200348807CC00701D00020704752
:1057F800012070477C0D002038B518B3037A8DF866
:105808000030009B00939DF80030002B26D14160AA
:1058180000F108010A70EFF3108272B6104B0360B2
:10582800191F4C68247A8DF80040009C00949DF85C
:105838000050012D04D00B68186008603AB107E0E9
:105848000B60F9E74FF492611020FEF763FF62B630
:1058580004480078BDE83840FEF752BD38BD000066
:10586800AC0D00208C0100202DE9F84F474FDFF8E0
:105878002091824600267868007A8DF8000000980A
:1058880000909DF80010272906D199F8131019B136
:10589800B9F8140000286CD08DF80060684600F054
:1058A8008BF89DF800100029F8D1002861D0044633
:1058B800007A8DF80000009800909DF80050A81E0E
:1058C80026285DD2DFE800F013225C1A5C22223E13
:1058D80022222222225C1A5C22221A5C5C5C5C2254
:1058E8005C5C221A22225C431A5C5C2F344C62688E
:1058F8007ABB40F28A3140E0267244E025480368CA
:105908001BB160682A4651469847F5E72A46214662
:10591800504600F079F810B10D2D34D0ECE70D2D7C
:1059280031D02672A7E762689AB940F22B4124E089
:105938008AF8016015218AF80010D4F80910CAF80D
:105948000410D9E7626822B940F23D4115E0626867
:105958001AB1514620469047CEE740F247410CE045
:105968000D48026822B1606828B100885146904706
:105978000220BDE8F88F4FF48A611020FEF7CAFEB6
:1059880040F26B41F9E70420F3E70000A80D00207E
:105998007C0D0020D0000020D400002001490870B0
:1059A80000F002B98C0100200249014808607047E4
:1059B8001F9C0000D000002038B50246114B002083
:1059C80010705868017A8DF80010009900919DF8C0
:1059D80000500124012D06D0EFF3108172B605683E
:1059E8005D6011B102E0002038BD62B6017A8DF821
:1059F8000010009900919DF80030002BF4D114702C
:105A080038BD0000A80D00202DE9F04786B00F0032
:105A18000446914613D0786888B100F1800500F5F6
:105A2800A271068810464FF00008122A78D009DCC7
:105A38004FF0010A03280AD00D2A70D11AE040F26B
:105A48000B21ACE01E284CD01F2A7FD126E0002D68
:105A58000FD084F8018084F800A084F80480A4F8AA
:105A6800056095F85F00E07135F8600F208168885F
:105A7800608175E03046FFF7FFF960B184F8018076
:105A88000D222270E680A4F808A0414684F804A0FC
:105A980003F0B1FB64E040F2531180E0FFF7A2FE8F
:105AA800E8B387F808803046ADF8006002A903F033
:105AB800A3FE10B140F2251171E0039810F8661F9B
:105AC8008DF8021041788DF803104088ADF8040075
